:100000000C948F000C94B8030C9491030C94B700DB
:100010000C94B7000C94B7000C94B7000C94B70084
:100020000C94B7000C94B7000C94B7000C94B70074
:100030000C94B7000C9465050C94B7000C94B700B1
:100040000C945E100C94B7000C9405040C94DF0320
:100050000C94B7000C94B7000C94B7000C94B70044
:100060000C9437040C94B700036EDB363D9A9999D3
:10007000993DABAAAA2A3E000000803F072C7AA532
:10008000BA6CC590DA3B9365FC8BBC53F810FD3C11
:100090005692834DBD879D3AB63DCBC9BF5BBE73BB
:1000A000DA0FC93F05A84CCDB2D44EB93836A902F3
:1000B0000C50B9918688083CA6AAAA2ABE00000066
:1000C000803F00000000240027002A0000000000FC
:1000D000250028002B000000000023002600290036
:1000E00004040404040404040202020202020303DE
:1000F00003030303010204081020408001020408E6
:100100001020010204081020000000080002010075
:100110000003040700000000000000003F24112439
:100120001FBECFEFD8E0DEBFCDBF26E0A2EBB3E02D
:1001300001C01D92A133B207E1F713E0A0E0B1E0E6
:10014000EAEAFCE502C005900D92A23BB107D9F79F
:1001500010E0CFE8D0E004C02197FE010E94A02962
:10016000CE38D107C9F70E94A8100C94532E0C94D6
:1001700000000895CF92DF92EF92FF920F931F93AA
:10018000CF93DF936C017A018B01C0E0D0E0CE15F4
:10019000DF0589F0D8016D918D01D601ED91FC91BB
:1001A0000190F081E02DC6010995892B11F47E01A3
:1001B00002C02196ECCFC701DF91CF911F910F9123
:1001C000FF90EF90DF90CF900895FC01538D448D08
:1001D000252F30E0842F90E0821B930B541710F0F2
:1001E000CF96089501970895FC01918D828D9817FF
:1001F00061F0828DDF01A80FB11D5D968C91928D0B
:100200009F5F9F73928F90E008958FEF9FEF089507
:10021000FC01918D828D981731F0828DE80FF11DD0
:10022000858D90E008958FEF9FEF0895FC01918DEB
:10023000228D892F90E0805C9F4F821B91098F73E4
:10024000992708958FE395E00E94160121E0892BFC
:1002500009F420E0822F0895FC01848DDF01A80FAE
:10026000B11DA35ABF4F2C91848D90E001968F73DE
:100270009927848FA689B7892C93A089B1898C91FD
:1002800080648C93938D848D981306C00288F389C3
:10029000E02D80818F7D80830895EF92FF920F93F0
:1002A0001F93CF93DF93EC0181E0888F9B8D8C8D22
:1002B000981305C0E889F989808185FD24C0F62E50
:1002C0000B8D10E00F5F1F4F0F731127E02E8C8DE9
:1002D000E8120CC00FB607FCFACFE889F9898081D3
:1002E00085FFF5CFCE010E942C01F1CF8B8DFE0151
:1002F000E80FF11DE35AFF4FF0820B8FEA89FB896B
:100300008081806207C0EE89FF896083E889F9896E
:1003100080818064808381E090E0DF91CF911F91A4
:100320000F91FF90EF900895CF93DF93EC01888DAC
:100330008823C9F0EA89FB89808185FD05C0A889E9
:10034000B9898C9186FD0FC00FB607FCF5CF80816F
:1003500085FFF2CFA889B9898C9185FFEDCFCE01B9
:100360000E942C01E7CFDF91CF91089580E090E0CB
:10037000892B29F00E94220181110C94000008951C
:1003800008958FEF9FEF08958FEF9FEF089580916D
:10039000380590E09195819591090895089580E040
:1003A00090E0089585ED8093BC008091BC0084FDB1
:1003B000FCCF1092120508954091EC04262F30E0F6
:1003C000240F311D21323105DCF420911205243037
:1003D000C9F4FC0180E090E0861758F43091EC04F9
:1003E0002191DC01A653BB4FA30FB11D2C930196A5
:1003F000F3CF8091EC04680F6093EC0480E00895E3
:1004000081E0089582E00895CF93DF9300D0CDB7C7
:10041000DEB7CB01642F49835A830E94DC014981F6
:10042000842F5A81952F0F900F90DF91CF910895CF
:10043000CF93DF931F92CDB7DEB7698361E0CE0122
:1004400001960E94DC0181E090E00F90DF91CF9156
:1004500008950E949D2BEF92FF920F931F93CF93CD
:10046000DF930CEA12E08AE3E82E85E0F82EC0E87C
:10047000D2E061E089910E94E60F82E0C738D80798
:10048000C1F761E0F80181918F010E94E60FF70149
:1004900011927F01F2E0003B1F0749F7DF91CF91F6
:1004A0001F910F91FF90EF900895FF920F931F936C
:1004B000CF93DF9380913C01882341F08091ED053B
:1004C0009091EE05FC012081211186C0C5EED5E09A
:1004D00000E010E080913E0590E00817190709F050
:1004E00076C08981882309F472C00F5F1F4F22965E
:1004F0000430110579F700E812E0C0E0D0E097E0A1
:10050000F92EE0913E05F0E0E65CFA4F8081FE01B5
:10051000F89EE00DF11D1124ED53FE4F6081F801AE
:1005200081918F010E94E60F2196C730D10549F7CE
:10053000E0913E05F0E0EE0FFF1FEB51FA4F818195
:10054000882349F0E0913E05F0E0E455FD4F60E07E
:1005500080810E94E60F80913E058F5F80933E056B
:10056000843010F010923E050E9452100091E00578
:100570001091E1052091E2053091E305DC01CB010A
:10058000801B910BA20BB30B0091DC051091DD05D4
:100590002091DE053091DF0580179107A207B30790
:1005A00020F081E08093E40502C01092E405809180
:1005B000E4058823C1F08091ED059091EE05FC01E2
:1005C0002081222381F021E020933C0105C061E0DD
:1005D00088810E94E60F89CFDF91CF911F910F9103
:1005E000FF900C942B02DF91CF911F910F91FF9000
:1005F0000895CF93DF93E091F705F091F8053097D8
:1006000089F0818592850E94BD0FE091F705F091F8
:10061000F80524853585332741E08217930709F0D3
:1006200040E04687C091F505D091F605209789F006
:1006300089859A850E94BD0FE091F705F091F80534
:1006400024853585332741E08217930709F040E080
:100650004E87DF91CF9108950C94CD26FC01248123
:1006600035816217730720F480819181009729F406
:100670001092390589E395E00895860F971F089534
:10068000FC01808191810C943B2AEF92FF920F93A1
:100690001F93CF93DF93EC01198218821B821A8279
:1006A0001D821C8261157105A9F17B01FB0101907E
:1006B0000020E9F731978F01061B170BB8016F5F18
:1006C0007F4F80E090E00E94D32A009759F09983F1
:1006D00088831B830A832C813D81232B81F4FC01B9
:1006E00010820DC088819981009711F00E943B2AE9
:1006F000198218821D821C821B821A820BC01D83E4
:100700000C83B701DF91CF911F910F91FF90EF9074
:100710000C94AB2BDF91CF911F910F91FF90EF9035
:1007200008951F920F920FB60F9211242F933F93AB
:100730004F935F936F937F938F939F93AF93BF93E9
:10074000EF93FF93E0913F01F09140010995FF91F4
:10075000EF91BF91AF919F918F917F916F915F9139
:100760004F913F912F910F900FBE0F901F901895B2
:100770001F920F920FB60F9211242F933F934F9316
:100780005F936F937F938F939F93AF93BF93EF93F9
:10079000FF93E0913D01F0913E010995FF91EF91AA
:1007A000BF91AF919F918F917F916F915F914F9189
:1007B0003F912F910F900FBE0F901F9018951F9291
:1007C0000F920FB60F9211242F933F934F935F9385
:1007D0006F937F938F939F93AF93BF93EF93FF9309
:1007E0008FE395E00E942C01FF91EF91BF91AF91B3
:1007F0009F918F917F916F915F914F913F912F9139
:100800000F900FBE0F901F9018951F920F920FB66A
:100810000F9211242F938F939F93EF93FF93E09167
:100820004F05F09150058081E0915505F0915605F6
:1008300082FD12C09081809158058F5F8F73209147
:100840005905821751F0E0915805F0E0E15CFA4F4C
:10085000958F8093580501C08081FF91EF919F9102
:100860008F912F910F900FBE0F901F9018951F9290
:100870000F920FB60F9211242F933F934F935F93D4
:100880006F937F938F939F93AF93BF93EF93FF9358
:100890008091B900887F803609F49CC068F5883261
:1008A00009F45BC090F4803109F454C038F4882313
:1008B00009F4F6C0883009F44DC0F6C0883109F457
:1008C0004CC0803209F45DC0EFC0803409F468C0C8
:1008D00048F4803309F455C0883309F0E5C08093AB
:1008E0001105D8C0803509F44FC0883509F45DC0C2
:1008F000883409F0D9C0D6C0883909F4C7C0A8F433
:10090000883709F467C038F4883609F463C0803743
:1009100009F460C0C9C0883809F4B8C0803909F446
:100920005FC0803809F0C0C05BC0803B09F486C05E
:1009300038F4803A09F466C0883A09F47FC0B4C03C
:10094000803C09F4A7C0883C09F4A4C0883B09F4A2
:100950008AC0AAC08091370510C090913605809159
:100960003505981770F5E091360581E08E0F80937C
:100970003605F0E0EB5EFA4F80818093BB0085EC9A
:1009800086C0809311058EC0E091360581E08E0F00
:10099000809336058091BB00F0E0EB5EFA4F8083D8
:1009A00090913605809135056EC0E091360581E065
:1009B0008E0F809336058091BB00F0E0EB5EFA4F1E
:1009C00080838091140581116DC081E080931305AF
:1009D00084EA61C083E08093120510921005CFCFA6
:1009E00080911005803208F051C0E091100581E03F
:1009F0008E0F809310058091BB00F0E0E051FB4F1B
:100A00008083BDCF85EC8093BC001092120580914D
:100A10001005803230F4E0911005F0E0E051FB4F1A
:100A200010826091100570E0E091EE04F091EF0407
:100A300080EF94E009951092100536C084E0809311
:100A400012051092ED041092EC04E091EA04F0918A
:100A5000EB0409958091EC04811105C081E080933D
:100A6000EC041092CA04E091ED0481E08E0F8093B3
:100A7000ED04F0E0E653FB4F80818093BB00909142
:100A8000ED048091EC04981708F479CF85E8809301
:100A9000BC000AC085EC8093BC001092120504C013
:100AA000109211050E94D201FF91EF91BF91AF9179
:100AB0009F918F917F916F915F914F913F912F9176
:100AC0000F900FBE0F901F9018951F920F920FB6A8
:100AD0000F9211242F933F934F935F936F937F93C4
:100AE0008F939F93AF93BF93EF93FF93E091F305A1
:100AF000F091F4050995FF91EF91BF91AF919F910E
:100B00008F917F916F915F914F913F912F910F90B6
:100B10000FBE0F901F9018950C94D52660E08EE0C4
:100B20000E94E60F60E08FE00E94E60F60E080E147
:100B30000E94E60F60E081E10C94E60F0F931F9393
:100B4000CF93DF93EC010E9452100C811D812E8106
:100B50003F81DC01CB01801B910BA20BB30B088101
:100B600019812A813B8180179107A207B30718F0EA
:100B700081E0888701C018868885DF91CF911F9119
:100B80000F910895CF92DF92EF92FF92CF93DF9370
:100B9000EC016A017B0118860E9452106C837D83F0
:100BA0008E839F83C882D982EA82FB82DF91CF91B4
:100BB000FF90EF90DF90CF900895CF93DF93EC01FB
:100BC00018860E9452106C837D838E839F83DF91F1
:100BD000CF910895CF9382E480933A0421E030E0EE
:100BE0004AE354E061E080ED90E00E94FC0AC82FE7
:100BF0000E94290A8823E1F321E030E04AEE53E025
:100C000061E080E190E00E94670AC82B21F48091A6
:100C1000EA0382FDEDCFCF9108950F931F93CF93F9
:100C20008C010E94290A8823E1F30115110509F0BE
:100C300067C081E080933A0492E090933B0497E58B
:100C400090933C049FE190933D0490E590933E0483
:100C500090933F0495E09093400496E29093410472
:100C6000109242048093430481EB8093440484E314
:100C70008093450488E58093460484E0809347048C
:100C800020E030E04AE354E06EE080E490E00E942F
:100C9000FC0AC82F86E180933A0490E190933B04CC
:100CA00080933C0488E180933D0420E030E04AE3F7
:100CB00054E064E080E590E00E94FC0AC82B83E2E7
:100CC00080933A0420E030E04AE354E061E082EDB2
:100CD00090E00E94FC0AC82B82E480933A0421E051
:100CE00030E04AE354E061E080ED90E00E94FC0ACD
:100CF000C82B09F064C010920A04109209045FC066
:100D00000130110509F05AC083E080933A0483E969
:100D100080933B0487E580933C048FE080933D04FF
:100D200080E680933E0490E590933F0496E2909392
:100D30004004909341048093420481E080934304F3
:100D400081EB8093440484E38093450488E5809399
:100D5000460484E08093470420E030E04AE354E016
:100D60006EE080E490E00E94FC0AC82F10923A04E2
:100D700086E080933B0486E180933C0480E280938C
:100D80003D0420E030E04AE354E064E080E690E097
:100D90000E94FC0AC82B82E480933A0421E030E0F0
:100DA0004AE354E061E080ED90E00E94FC0AC82B29
:100DB00031F410930A040093090401C0C0E00E94BA
:100DC000290A8823E1F321E030E04AEE53E061E0B4
:100DD00080E190E00E94670AC82B21F48091EA0329
:100DE00082FDEDCF8C2FCF911F910F9108950F931E
:100DF0001F93CF93DF9300D000D000D0CDB7DEB7E4
:100E00001092C2031092C10361E08EE00E94E60FCF
:100E100082E090E09093C0038093BF0386EB93E061
:100E20000E94DD050E94290A8823E1F380914E0487
:100E300090914F04009709F079C06EE873E082EB5F
:100E400093E00E94AB2B62EB73E0CE0101960E940F
:100E50004503CE0101960E94270CCE0101960E9407
:100E6000400320E030E04CEB51E067E080ED90E0A3
:100E70000E94FC0A182F20E030E04CEA51E060E1CB
:100E800080E490E00E94FC0A182B20E030E042EA67
:100E900051E06AE080E590E00E94FC0A182B20E017
:100EA00030E049E951E069E080E690E00E94FC0A08
:100EB000182B20E030E043E951E066E080E790E065
:100EC0000E94FC0A182B20E030E04FE851E064E07B
:100ED00080E890E00E94FC0A182B20E030E04BE80C
:100EE00051E064E080E990E00E94FC0A182B21E0C8
:100EF00030E048E851E063E080EA90E00E94FC0ABC
:100F0000182B0E94290A8823E1F321E030E045E212
:100F100054E061E080E190E00E94670A182B09F03C
:100F200081C18091250482FDECCF80C18130910583
:100F300009F083C063E973E082EB93E00E94AB2B7E
:100F400062EB73E0CE0101960E944503CE0101964B
:100F50000E94270CCE0101960E94400320E030E061
:100F60004FE751E069E080ED90E00E94FC0A182F05
:100F700020E030E043E751E06CE080E490E00E9444
:100F8000FC0A182B20E030E04BE651E068E080E5F9
:100F900090E00E94FC0A182B20E030E044E651E08B
:100FA00067E080E690E00E94FC0A182B20E030E029
:100FB0004EE551E066E080E790E00E94FC0A182BC5
:100FC00020E030E04AE551E064E080E890E00E94F3
:100FD000FC0A182B20E030E046E551E064E080E9AF
:100FE00090E00E94FC0A182B20E030E043E551E03D
:100FF00063E080EA90E00E94FC0A182B21E030E0D8
:101000004FE451E064E080EC90E00E94FC0A182B71
:101010000E94290A8823E1F321E030E04BE054E00C
:1010200061E080E190E00E94670A182B09F0FAC0A5
:1010300080910B0482FDECCFF9C082309105D1F490
:1010400068E973E082EB93E00E94AB2B62EB73E004
:10105000CE0101960E944503CE0101960E94270C05
:10106000CE0101960E94400380E090E00E940D06B0
:10107000182FD6C0039709F0D9C06DE973E082EB51
:1010800093E00E94AB2B62EB73E0CE0101960E94CD
:101090004503CE0101960E94270CCE0101960E94C5
:1010A00040038AE480933A0420E030E04AE354E0CD
:1010B00061E080ED90E00E94FC0A182F83E28093AB
:1010C0003A048EE080933B0420E030E04AE354E0B1
:1010D00062E082ED90E00E94FC0A182B80E090E034
:1010E0000E942C038130B1F482E090E00E942C0336
:1010F00080933A0481E090E00E942C0380933B04AB
:1011000020E030E04AE354E062E089E790E00E94AA
:10111000FC0A1AC08FE780933A0420E030E04AE3EB
:1011200054E061E089E790E00E94FC0A082F8DED11
:1011300080933A0420E030E04AE354E061E08AE73B
:1011400090E00E94FC0A802B182B83E090E00E9424
:101150002C038130B1F484E090E00E942C03809352
:10116000D80385E090E00E942C038093D90320E00F
:1011700030E048ED53E062E082E790E00E94FC0A34
:10118000182B88E280933A0420E030E04AE354E0F0
:1011900061E083E590E00E94FC0A182B21E030E03A
:1011A00043EC53E061E080E190E00E94670A182B75
:1011B00021F48091C30382FDF1CF84ED80933A0442
:1011C00020E030E04AE354E061E080EF90E00E94EC
:1011D000FC0A182B8FEF80933A0420E030E04AE3BA
:1011E00054E061E081EF90E00E94FC0A182B85ED4D
:1011F00080933A0420E030E04AE354E061E080EF7D
:1012000090E00E94FC0A182B10923A0421E030E092
:101210004AE354E061E081EF90E00E94FC0A182B61
:10122000112321F0812F90E00E94030C26960FB627
:10123000F894DEBF0FBECDBFDF91CF911F910F910C
:101240000895ECEBF0E010828081806480838081DF
:101250008460808310920A0608950F931F930E9462
:101260005210009106061091070620910806309151
:101270000906DC01CB01801B910BA20BB30B009183
:10128000020610910306209104063091050680178E
:101290009107A207B30720F081E08093110602C0F6
:1012A00010921106809111061F910F91089584E903
:1012B0008093BC009091BC00892F807194FF08C07E
:1012C0000E942D098823B1F30E94210981E008952D
:1012D0000895CF93C82F882311F084EC01C084E8CF
:1012E0008093BC008091BC0087FD07C00E942D093F
:1012F0008823C1F30E9421091AC08091B900887F18
:10130000883321F40E94210982E012C08091B90043
:10131000887F883511F4CC2341F08091B900887F13
:10132000803529F481E0CC2319F080E001C081E010
:10133000CF9108958093BB0084E88093BC00809196
:10134000BC0087FD07C00E942D098823C1F30E94BD
:1013500021090CC08091B900887F883249F08091C2
:10136000B900887F803399F70E94570981E008957A
:1013700080E008950F931F93CF93DF93D82F0E949F
:1013800052106093060670930706809308069093A8
:1013900009061092110614EA04E81093BC0080912B
:1013A000BC0087FD08C00E942D098823C1F30E945C
:1013B0002109C1E00BC08091B900887F883029F0F5
:1013C0008091B900887F803131F5C0E090910D06A1
:1013D000990F9D2B9093BB000093BC008091BC00A3
:1013E00087FD07C00E942D098823C1F30E942109AF
:1013F00027C09091B900987F983129F09091B90059
:10140000987F903489F490E0C92BE1F00E942D0977
:10141000811118C0C2CF9091B900987F983311F410
:101420000E942109C2E0D2CF9091B900987F9032FA
:1014300029F09091B900987F9834C1F60E9457091D
:1014400091E0E2CF80911106DF91CF911F910F9132
:10145000089580910B0690910C060297F1F080910F
:101460000B0690910C060397C1F080910B069091AA
:101470000C068336910579F080910B0690910C064D
:101480000E94BD0F40910E0650910F06552721E096
:1014900084179507D1F020E018C0809110068111C3
:1014A00011C080910B0690910C060E94BD0F4091D7
:1014B0000E0650910F06552721E08417950719F065
:1014C00020E001C021E010921006822F08958F9233
:1014D0009F92AF92BF92CF92DF92EF92FF920F93C3
:1014E0001F93CF93DF931F92CDB7DEB7082FD92E6E
:1014F000862E7A0159010E9452106093060670935D
:1015000007068093080690930906109211069090A2
:101510000A069110FECF81E080930A0680E00E94C7
:10152000BA09182F81110CC08091160690911706E8
:10153000019751F48D2D0E949A09182F882321F0CC
:101540000E942109912E49C0802F0E949A09811181
:101550000CC081E00E94BA09811107C08701C82C24
:10156000D12C81E0C81AD1080BC089830E942109BF
:101570008981982E32C08091BB00F80181938F0140
:10158000802F8E19881580F4C8018E199F098C153B
:101590009D0541F480E00E946909882361F3992444
:1015A00093941BC081E0F7CFAB2819F410920A0680
:1015B00014C00E9457090E94290A8823B9F3809118
:1015C0000B0690910C068336910581F380910E06EF
:1015D00090910F06029779F7E9CF892D0F90DF914F
:1015E000CF911F910F91FF90EF90DF90CF90BF9020
:1015F000AF909F908F9008959F92AF92BF92CF929D
:10160000DF92EF92FF920F931F93CF93DF931F927E
:10161000CDB7DEB7082FC92ED62E942EB52E790160
:101620000E94521060930606709307068093080686
:101630009093090610921106A0900A06A110FECF01
:1016400081E080930A0680E00E94BA09182F811178
:101650000CC08091160690911706019751F48C2DBD
:101660000E949A09182F882321F00E942109A12E97
:1016700035C0802F0E949A09811111C0C92C092DF3
:101680001B2D902F9C199D1540F4811108C0F80165
:1016900081918F010E949A09F4CF882331F08983C8
:1016A0000E9421098981A82E19C0EF2819F41092EF
:1016B0000A0614C00E9457090E94290A8823B9F318
:1016C00080910B0690910C068336910581F38091F1
:1016D0000E0690910F06029779F7E9CF8A2D0F90A9
:1016E000DF91CF911F910F91FF90EF90DF90CF90FE
:1016F000BF90AF909F900895EF92FF920F931F932A
:10170000CF93DF939C0110923E0589519C4F873FF8
:101710009A4210F020E030E0C8EED3E0E0E0F0E0E4
:101720000AE010E04BE037FF08C0309731F44093F7
:101730003A053195219531090EC0CF01865C9A4F4B
:101740007C01C901BE010E945629CB01B8010E944B
:101750005629D7018C93CE01B8010E945629EB017E
:101760003196E430F105F9F620913A0540913B05B8
:1017700050913C0580E090E031E0009729F4211180
:1017800023C01092E60526C08130910561F4411115
:101790001BC0222311F02B3019F41092E8051AC057
:1017A0003093E80517C08230910571F451110CC0D7
:1017B000411107C0222311F02B3019F41092EA05D1
:1017C00009C03093EA0506C0FC01EE0FFF1FEB5184
:1017D000FA4F318301968430910579F61092E40531
:1017E0000E9452106093E0057093E1058093E2053A
:1017F0009093E30510923C01DF91CF911F910F91DF
:10180000FF90EF900895CF93DF93AAE3B5E091E1C5
:101810009C93E5EEF5E091E0918322E111962C9303
:101820001197938312962C931297958313968C930A
:101830009783CCEDD5E018860E9452106C837D838F
:101840008E839F8310923C01DF91CF9108952F9258
:101850003F924F925F926F927F928F929F92AF9240
:10186000BF92CF92DF92EF92FF920F931F93CF938D
:10187000DF938C019AE3E92E95E0F92EC0E0D0E0E9
:101880002DE0222E3EE0332E4FE0442E50E1D52EA7
:1018900063E1C62E74E1B72EE1E1AE2EF2E19F2E98
:1018A000A5E18A2EB6E17B2E87E1682E98E1592EBC
:1018B000BE01C8010E942E03FC018081BE0180325E
:1018C00029F4C8010E942E032AE0F7C0C8010E9433
:1018D0002E03FC018081843409F434C1BE01C801A7
:1018E0000E942E03FC018081843609F42BC1BE01C5
:1018F000C8010E942E03FC0180818C3409F429C1A7
:10190000BE01C8010E942E03FC0180818C3609F4BF
:1019100020C1BE01C8010E942E03FC0180818E34CB
:1019200009F41EC1BE01C8010E942E03FC01808182
:101930008E3609F415C1BE01C8010E942E03FC01B8
:101940008081833509F413C1BE01C8010E942E03B2
:10195000FC018081833709F40AC1BE01C8010E94DD
:101960002E03FC018081843509F408C1BE01C80141
:101970000E942E03FC018081843709F4FFC0BE0160
:10198000C8010E942E03FC018081883409F4FDC047
:10199000BE01C8010E942E03FC018081883609F433
:1019A000F4C0BE01C8010E942E03FC018081853471
:1019B00009F4F2C0BE01C8010E942E03FC0180811F
:1019C000853609F4E9C0BE01C8010E942E03FC015E
:1019D0008081823509F4E7C0BE01C8010E942E0350
:1019E000FC018081823709F4DEC0BE01C8010E947B
:1019F0002E03FC0180818C3409F4DCC0BE01C801D7
:101A00000E942E03FC0180818C3609F4D3C0BE01F4
:101A1000C8010E942E03FC018081803509F4D1C0E9
:101A2000BE01C8010E942E03FC018081803709F4A9
:101A3000C8C0BE01C8010E942E03FC01808183340E
:101A400009F4C6C0BE01C8010E942E03FC018081BA
:101A5000833609F4BDC0BE01C8010E942E03FC01FB
:101A600080818F3409F4BBC0BE01C8010E942E03DF
:101A7000FC0180818F3609F4B2C0BE01C8010E940A
:101A80002E03FC018081893409F4BFC0BE01C80166
:101A90000E942E03FC018081893609F4B6C0BE0184
:101AA000C8010E942E03FC0180818E3709F09EC080
:101AB000BE01C8010E942E032AE1FC012083BE0161
:101AC000C8010E942E03FC018081F7018083BE01C2
:101AD000C8010E942E03FC01808180538A3010F4DB
:101AE000F7018083FE01EE0FFF1FEB51FA4F81E0FB
:101AF00081832196FFEFEF1AFF0AC430D10509F068
:101B0000D7CE1092E4050E9452106093E0057093C6
:101B1000E1058093E2059093E30510923C01DF918B
:101B2000CF911F910F91FF90EF90DF90CF90BF90DA
:101B3000AF909F908F907F906F905F904F903F906D
:101B40002F900895BE01C8010E942E03FC0120823F
:101B5000B6CFBE01C8010E942E03FC013082AFCF78
:101B6000BE01C8010E942E03FC014082A8CFBE0125
:101B7000C8010E942E03FC01D082A1CFBE01C80182
:101B80000E942E03FC01C0829ACFBE01C8010E94B0
:101B90002E03FC01B08293CFBE01C8010E942E0328
:101BA000FC01A0828CCFBE01C8010E942E03FC0163
:101BB000908285CFBE01C8010E942E03FC01808265
:101BC0007ECFBE01C8010E942E03FC01708277CF38
:101BD000BE01C8010E942E03FC01608270CFBE01CD
:101BE000C8010E942E03FC01508269CFBE01C801CA
:101BF0000E942E03FC0180818D3209F060CFBE016E
:101C0000C8010E942E032CE058CFBE01C8010E94DB
:101C10002E0329E152CF009769F0FC0101900020CA
:101C2000E9F73197AF01481B590BBC018FE395E0F1
:101C30000C94BA0080E090E00895CF93DF930E9467
:101C40000B0EEC0182EA93E00E940B0E8C0F9D1F9D
:101C5000DF91CF9108958F929F92AF92BF920F9391
:101C60001F93CF93DF93CDB7DEB7A1970FB6F8944C
:101C7000DEBF0FBECDBF19A2423008F44AE08E018C
:101C80000F5D1F4F842E912CA12CB12CA501940126
:101C90000E947E29E62FB901CA0101501109EA30DC
:101CA00014F4E05D01C0E95CD801EC93232B242BF4
:101CB000252B61F7C8010E940B0EA1960FB6F89470
:101CC000DEBF0FBECDBFDF91CF911F910F91BF90AF
:101CD000AF909F908F900895E0913F05F09140055F
:101CE0000190F081E02D682F8FE395E00994833017
:101CF00081F028F4813099F08230A1F00895873086
:101D0000A9F08830B9F08430D1F4809180008F7DC3
:101D100003C0809180008F7780938000089584B500
:101D20008F7702C084B58F7D84BD08958091B00007
:101D30008F7703C08091B0008F7D8093B0000895AD
:101D4000CF92DF92EF92FF92CF93DF936C01990FC6
:101D5000EE08FF08F7FE12C08DE20E946C0EEC0147
:101D600066277727CB016C197D098E099F094AE008
:101D70000E942B0E7C01EC0EFD1E06C04AE0C7013E
:101D8000B6010E942B0E7C0182EA93E00E940B0EAA
:101D90008E0D9F1DDF91CF91FF90EF90DF90CF9040
:101DA00008954F925F926F927F928F929F92AF921F
:101DB000BF92CF92DF92EF92FF926B017C019B0169
:101DC000AC010E943C29882319F085EA93E01AC0EF
:101DD00046015701E894B7F82FEF3FEF4FE75FE771
:101DE000C501B4010E943C29811110C02FEF3FEFC3
:101DF0004FE75FE7C501B4010E94A925181634F426
:101E000089EA93E00E940B0E7C017FC02FEF3FEF29
:101E10004FE75FE4C701B6010E94E92818161CF4D9
:101E20008DEA93E0EFCF2FEF3FEF4FE75FECC70175
:101E3000B6010E94A92587FDF3CF20E030E0A9017B
:101E4000C701B6010E94A92587FF09C08DE20E9443
:101E50006C0E5C01F7FAF094F7F8F09402C0A12C34
:101E6000B12C2AE037ED43EA5BE3C701B6010E94DB
:101E70001B272B013C010E9420286B017C010E9442
:101E8000AE259B01AC01C301B2010E941A272B01B0
:101E90003C014AE0C701B6010E942B0E7C01EA0C0E
:101EA000FB1C8EE20E946C0EE80EF91E20E030E072
:101EB00040E251E4C301B2010E940F262B013C0114
:101EC0000E9420284B01A12CB12C4AE0C501B4018D
:101ED0000E942B0EE80EF91EC501B4010E94AE252A
:101EE0009B01AC01C301B2010E941A2720E030E03F
:101EF00040E251E40E940F260E94202880E090E0FA
:101F00004AE00E942B0EE80EF91E82EA93E00E943E
:101F10000B0E8E0D9F1DFF90EF90DF90CF90BF9026
:101F2000AF909F908F907F906F905F904F900895AB
:101F3000CF93DF93BC0180E090E04AE00E942B0E3B
:101F4000EC0182EA93E00E940B0E8C0F9D1FDF9143
:101F5000CF910895CF93DF93682F70E080E090E0F9
:101F60004AE00E942B0EEC0182EA93E00E940B0EE5
:101F70008C0F9D1FDF91CF910895CF93DF93282F72
:101F800030E0F901E85FFE4F8491F901EC50FF4F1A
:101F9000D491F901E052FF4FC491CC2391F081110B
:101FA0000E94770EEC2FF0E0EE0FFF1FEA52FF4F7A
:101FB000A591B491EC91ED2381E090E021F480E0D3
:101FC00002C080E090E0DF91CF9108951F93CF93FE
:101FD000DF93282F30E0F901E85FFE4F8491F9018B
:101FE000EC50FF4FD491F901E052FF4FC491CC2344
:101FF000C9F0162F81110E94770EEC2FF0E0EE0F42
:10200000FF1FE453FF4FA591B4918FB7F8941111BE
:1020100005C09C91ED2FE095E92302C0EC91ED2BDA
:10202000EC938FBFDF91CF911F910895CF93DF93F2
:1020300090E0FC01EC50FF4F2491FC01E052FF4F77
:102040008491882361F190E0880F991FFC01EE5381
:10205000FF4FC591D491FC01E453FF4FA591B4917A
:10206000611109C09FB7F8948881209582238883E5
:10207000EC912E230BC0623061F49FB7F894388145
:10208000822F809583238883EC912E2B2C939FBFE6
:1020900006C08FB7F894E8812E2B28838FBFDF917D
:1020A000CF9108952FB7F8946091290670912A0670
:1020B00080912B0690912C062FBF08951F920F92AE
:1020C0000FB60F9211242F933F938F939F93AF934B
:1020D000BF938091290690912A06A0912B06B0917A
:1020E0002C063091280623E0230F2D3720F401968B
:1020F000A11DB11D05C026E8230F0296A11DB11D2B
:10210000209328068093290690932A06A0932B06F5
:10211000B0932C068091240690912506A091260666
:10212000B09127060196A11DB11D809324069093BE
:102130002506A0932606B0932706BF91AF919F91E5
:102140008F913F912F910F900FBE0F901F90189578
:10215000CF93DF93CDB7DEB76A970FB6F894DEBFA3
:102160000FBECDBF789484B5826084BD84B5816094
:1021700084BD85B5826085BD85B5816085BD809152
:102180006E00816080936E001092810080918100CA
:1021900082608093810080918100816080938100C2
:1021A000809180008160809380008091B100846084
:1021B0008093B1008091B00081608093B0008091E5
:1021C0007A00846080937A0080917A0082608093A4
:1021D0007A0080917A00816080937A0080917A0001
:1021E000806880937A001092C10007E411E0D80162
:1021F000FC900E5F1F4F61E08F2D0E94161060E073
:102200008F2D0E94E60FB1E00F341B0781F7E0919C
:102210004F05F091500582E08083E0914B05F091ED
:102220004C051082E0914D05F0914E058FEC8083B6
:1022300010925705E0915305F091540586E0808394
:10224000E0915105F0915205808180618083E09199
:102250005105F0915205808188608083E09151059D
:10226000F0915205808180688083E0915105F09162
:10227000520580818F7D80830E94290A8823E1F3A3
:1022800021E030E04AE354E063E080E090E00E9427
:10229000670A80913A04813481F480913B04843050
:1022A00039F480913C04823819F481E090E00EC04A
:1022B00010924F0410924E0417C0863419F482E035
:1022C00090E004C0833439F483E090E090934F04AD
:1022D00080934E0409C082E090E00E94030C8CEBD6
:1022E00092E00E941D0EFFCF0E94F7060091C103ED
:1022F0001091C203F801FF27EE0FFF1FE95BFE4FAD
:1023000061E080810E94E60F037011270F5F1F4F6D
:1023100027E534E0029FC001039F900D129F900DAE
:1023200011249093B3048093B2040E947C0B88EE36
:1023300093E0A0E0B0E08093B6049093B704A0933C
:10234000B804B093B90444EF51E060E070E040930A
:10235000C0045093C1046093C2047093C30480937B
:10236000B6039093B703A093B803B093B9038CE27C
:1023700091E0A0E0B0E08093500490935104A093CA
:102380005204B09353041092B5041092B40412E0B6
:10239000212E312C0E94290A882309F4C4C180917E
:1023A0004E0490914F04009709F043C020E030E0C4
:1023B0004AE354E063E080E090E00E94670A20E096
:1023C00030E045E254E069E080E190E00E94670A75
:1023D000082F20E030E04EE254E06CE080E290E034
:1023E0000E94670A082B21E030E048E354E062E0F5
:1023F00082E390E00E94670A082B80913A048134BE
:1024000059F480913B04843009F07CC180913C04F4
:10241000823809F077C162C1863409F46DC1833412
:1024200009F070C1E3E0F0E0F0934F04E0934E0454
:1024300067C18130910509F043C020E030E04AE3F4
:1024400054E063E080E090E00E94670A20E030E022
:102450004BE054E06DE080E190E00E94670A082FB5
:1024600020E030E047E154E06CE080E290E00E9440
:10247000670A082B21E030E043E254E062E082E3A7
:1024800090E00E94670A082B80913A04813459F445
:1024900080913B04843009F435C180913C0482383A
:1024A00009F023C12FC1863409F426C1833409F011
:1024B00029C123E030E030934F0420934E0420C123
:1024C0008230910561F520E030E04AE354E063E0BA
:1024D00080E090E00E94670A20E030E04AEE53E09E
:1024E0006CE080E190E00E94670A082F21E030E074
:1024F00049EF53E064E080E290E00E94670A082B15
:1025000080913A04813409F4E1C0833409F0FAC0BF
:1025100043E050E050934F0440934E04F1C00397C2
:1025200009F0F7C020E030E04AE354E063E080E0E7
:1025300090E00E94670A20E030E043EC53E065E061
:1025400080E190E00E94670A082F20E030E04BED28
:1025500053E062E080E890E00E94670A082B8091D7
:10256000C1039091C2030497029708F0A1C020E034
:1025700030E048EC53E06CE080E290E00E94670AB3
:10258000182F6091CC037091CD0380E090E00E9401
:10259000AE256B017C016091E2037091E30380E062
:1025A00090E00E94AE2520E030E0A9010E940F26B5
:1025B0009B01AC01C701B6010E941B270E94202885
:1025C0007093E3036093E2036091CE037091CF03B5
:1025D00080E090E00E94AE256B017C016091E403F5
:1025E0007091E50380E090E00E94AE2520E030E0AD
:1025F000A9010E940F269B01AC01C701B6010E94F0
:102600001B270E9420287093E5036093E4036091E8
:10261000D0037091D10380E090E00E94AE256B0161
:102620007C016091E6037091E70380E090E00E94F6
:10263000AE2520E030E0A9010E940F269B01AC01ED
:10264000C701B6010E941B270E9420287093E70350
:102650006093E6036091D2037091D30380E090E031
:102660000E94AE256B017C016091E8037091E90343
:1026700080E090E00E94AE2520E030E0A9010E94B9
:102680000F269B01AC01C701B6010E941B270E94C7
:1026900020287093E9036093E80320E030E04AEDDE
:1026A00053E061E088E790E00E94670A812B082BE5
:1026B00021E030E04DED53E061E08EE890E00E94D3
:1026C000670A082B80913A048134A1F480913B047D
:1026D000843059F480913C04823839F481E090E0F0
:1026E00090934F0480934E040BC010924F041092AD
:1026F0004E0406C0863431F430924F0420924E04CA
:102700000E94F706002331F0802F90E00E94030C16
:1027100001C000E080EC94E00E94DD0581E0809340
:10272000BF0411E002C010E000E080EC94E00E94E1
:102730009E05882321F081E090E00E94030CC09068
:102740004E04D0904F04C114D10419F48091270491
:1027500006C051E0C516D10431F480910D0486FB0A
:10276000882780F916C062E0C616D10449F480912A
:10277000090490910A04892B71F48091EC0306C03E
:1027800083E0C816D10439F48091C50385FB8827FE
:1027900080F980935904E0900001F090010192E0EB
:1027A000E916F10451F480915904882309F481C099
:1027B00010920101109200011AC0E114F10459F4C1
:1027C00080915904811175C081E090E090930101DE
:1027D0008093000188C0A4E0EA16F10409F5809115
:1027E0005904811109C0309201012092000144EF87
:1027F00051E060E070E00FC0B3E0CB16D10409F007
:1028000058C0E5E0F0E0F0930101E09300014CEDE9
:1028100055E060E070E080E594E00E94C20563C08E
:10282000F1E0EF16F10409F044C0809159048111E0
:1028300040C030920101209200010E948E058091DB
:10284000C1039091C20399270196843028F4909394
:10285000C2038093C10304C01092C2031092C1034B
:102860008091C1039091C2037C01FF24837099275A
:1028700001969C0147E554E0249FC001259F900DDF
:10288000349F900D11240E947C0B81E090E0909386
:10289000C0038093BF03F701EE0FFF1FE95BFE4FFC
:1028A00061E080810E94E60F86EB94E00E94DD05E6
:1028B0001AC080E594E00E949E058823A1F052E0B2
:1028C000E516F10481F035E0E316F10431F463E03C
:1028D000C616D10411F40C942424A4E0B0E0B09303
:1028E0000101A09300018091BF039091C00381304A
:1028F000910511F40C94C2238230910511F40C94CB
:10290000E323892B11F00C94FA238091BF048823D0
:1029100011F40C94FA2380914E0490914F04009787
:1029200009F080C08091C1039091C203813091056C
:10293000B9F07CF4892B11F00C94BF2380912E0404
:1029400090912F049093B3048093B2046091270474
:1029500090C08230910511F10397C9F10C94BF2307
:102960002091280422FF0DC01092B5041092B404E7
:1029700080913004909131049093B3048093B20419
:102980000AC09093B5048093B4046EEC72E082EBBD
:1029900093E00E94AB2B609128048BC080913B0197
:1029A000882351F010923B018091340490913504BA
:1029B00090935B0480935A0481E090E09093B50477
:1029C0008093B40480915A04909134048DC0809116
:1029D0002C0490912D049093B3048093B2046091E1
:1029E0002B0460FF08C06695617080E10E94E60FCD
:1029F00060912B049FC062FB662760F98EE00E9405
:102A0000E60F60912B04669561708FE00E94E60FDF
:102A100060E080E10E94E60F60E081E10E94E60F45
:102A20000C94BF238130910509F09AC080910B046A
:102A300087FD73C28091C1039091C20381309105DB
:102A4000D9F07CF4892B11F00C94BF2380911704EA
:102A5000909118049093B3048093B20460910D0494
:102A600008C08230910541F1039709F450C00C94DD
:102A7000BF2361708EE0D2CF20910E0422FF0DC0E3
:102A80001092B5041092B4048091190490911A0424
:102A90009093B3048093B2040AC09093B5048093DA
:102AA000B4046EEC72E082EB93E00E94AB2B609179
:102AB0000E046695617049C080913B01882351F0F6
:102AC00010923B01809115049091160490935B0441
:102AD00080935A0481E090E09093B5048093B4040D
:102AE00080915A0490911504891B8E3924F0833605
:102AF0001CF083E601C08DE9282F082E000C330B53
:102B00003F938F9383ED92E09F938F93CEC18091FB
:102B10001204909113049093B3048093B2046091D3
:102B2000110460FF14C06695617080E10E94E60F99
:102B30006091110462FB662760F981E10E94E60F53
:102B400060E08EE00E94E60F60E08FE067CF62FBFE
:102B5000662760F98EE00E94E60F6091110453CF62
:102B60008230910509F0D1C18091EA0387FDD5C17A
:102B70008091090490910A04009781F4109208044E
:102B800081E02091F9033091FA0329353B4108F4A3
:102B900080E08093070481112DC070C0019789F4F3
:102BA0008091FB039091FC0388359B41F0F080916C
:102BB0000804882359F08FE594E00E949E0588233D
:102BC000B1F0109208041092070458C0FF24F39447
:102BD000F092080440ED57E060E070E08FE594E08B
:102BE0000E94C205F092070405C01092080481E01B
:102BF000809307048091C1039091C203039741F130
:102C00003092C0032092BF0381E090E09093B5041E
:102C10008093B4046EED72E082EB93E00E94AB2BE4
:102C200062EB73E0CE0101960E944503CE0101964E
:102C30000E94270CCE0101960E94400381E0809300
:102C4000090123E030E03093C2032093C10339C06F
:102C500080910901882309F449C0109209010E945A
:102C6000EA051092B5041092B40480910904909181
:102C70000A04019731F181E090E021C08091C10305
:102C80009091C2030397F9F43092C0032092BF03DE
:102C900081E090E09093B5048093B4046EED72E00F
:102CA00082EB93E00E94AB2B81E08093090180913D
:102CB000090490910A04019721F480E090E00E94B9
:102CC0000D0611E013C080910901882379F010925C
:102CD00009010E94EA051092B5041092B404809193
:102CE000090490910A04892B61F3E7CF8091C10315
:102CF0009091C2038130910599F04CF4892B11F029
:102D00000C94BF238091F1039091F20300C38230B1
:102D1000910509F4E1C0039709F4E3C00C94BF23C3
:102D200020910701309108012230310549F480914A
:102D3000EC0384FF0FC010920801109207010AC033
:102D4000232B41F42091EC0324FD04C0909308014F
:102D50008093070180910701909108010197E1F5A7
:102D60008091EC0384FD38C0309208012092070165
:102D70008091050190910601853833E0930738F082
:102D800044E650E050930401409303010CC08039A5
:102D900051E0950718F08C599F4F01C0C29690934F
:102DA00004018093030180910301909104019093A9
:102DB0000601809305019C01369527953695279548
:102DC00020935E0474E0969587957A95E1F7809359
:102DD0005D0481E080935C0480915C04882309F1A8
:102DE00080915E0480933A0480915D0480933B045B
:102DF00021E030E04AE354E062E080E890E00E94A5
:102E0000FC0A8111F5CF80910301909104010E9489
:102E10007C0B10925C041092020186EB94E00E94FD
:102E2000DD0586EB94E00E949E05882319F081E081
:102E30008093020180910201882309F444C081E05B
:102E400090E09093B5048093B4042091F3038091B3
:102E5000F00321FF1FC087FD02C094E601C09CE67D
:102E600020FD02C083E701C08EE61F929F931F9250
:102E70008F93A3EEB2E0BF93AF9382EB93E09F9367
:102E80008F930E94B22B0FB6F894DEBF0FBECDBF5A
:102E90000C94BF2387FD02C084E601C08CE61F921C
:102EA0008F93AAEEB2E0BF93AF9382EB93E09F9330
:102EB0008F930E94B22B0F900F900F900F900F9056
:102EC0000F900C94BF231092B5041092B40480911B
:102ED0000301909104011BC28091F9039091FA03C0
:102EE00016C28091EE039091EF032091B2043091CD
:102EF000B3042817390709F410E02091ED0322FDEF
:102F000006C291958195910902C2039711F00C9424
:102F1000BF238091C30387FF05C00E94F70688ED99
:102F200092E07FC38091C1039091C20382309105EA
:102F300009F4D3C03CF4009781F0019709F464C010
:102F40000C94BF238430910509F4E7C10CF47CC1D3
:102F5000059709F4B4C40C94BF232091DB0330918E
:102F6000DC034AE0429FC001439F900D112464E2BC
:102F700070E00E9456297B0180913A016B35710502
:102F800040F020916E0430916F042A3031056CF0CE
:102F90000AC06A30710538F420916E0430916F04D4
:102FA0002B35310514F4882341F0882319F0CB0127
:102FB0000E947C0B10923A010EC020916E04309159
:102FC0006F047B01E20EF31EF7FE03C0FFEFEF1A62
:102FD000FF0AF594E79424E6E216F10411F4E12CDB
:102FE000F12C11E08091B2049091B3048E159F05ED
:102FF00009F410E0F092B304E092B204F0926F048E
:10300000E0926E040C94BF2380913A018823A1F0D2
:103010008091DB039091DC0390936F0480936E04A6
:10302000109269041092680410923A018091B204DF
:103030009091B3040E947C0B2091DB033091DC0360
:1030400080916E0490916F04A901481B590BCA012D
:10305000453B51051CF08856914006C08C345FEF0B
:10306000950714F488599E4F709168046091690423
:103070008A3091054CF0472F562F0A974F5F5F4FCC
:103080008A309105D4F70DC0873FAFEF9A079CF4C3
:10309000472F562F0A9641505109873FBFEF9B0794
:1030A000CCF35093690440936804281B390B309388
:1030B0006F0420936E048091680490916904895193
:1030C0009C4F8F3C974020F0109269041092680446
:1030D000809168049091690411C19091C703809117
:1030E0003A0197FD03C0882309F4A2C08823A9F000
:1030F00010923A018AE080930D0181E080930C01E7
:1031000010926D0410926C041092B3041092B204E9
:1031100080E090E00E947C0B11E080910C018823FC
:1031200049F08091DD0390E090936B0480936A04F2
:1031300010920C0120910D0180916A0490916B0412
:10314000222361F03091DD03830F911D90936B0476
:1031500080936A04215020930D0114C06BE070E04D
:103160000E946A292BE0269FC001279F900D112401
:1031700090936D0480936C048AE080930D0181E04C
:1031800080930C01E090B204F090B304C0906C0402
:10319000D0906D049701F7FE04C0222733272E1923
:1031A0003F09C601D7FE04C0882799278C199D09BD
:1031B0002817390744F58091C70386FF09C00E948C
:1031C0008E0561E08EE00E94E60F61E08FE008C0AE
:1031D0000E948E0561E080E10E94E60F61E081E1DE
:1031E0000E94E60F11E0EC14FD0409F410E0D09207
:1031F000B304C092B2042FEF3FEF30930B01209342
:103200000A010C94BF2380910A0190910B01009751
:1032100041F41092B3041092B2040E948E050C94F3
:10322000BF23019790930B0180930A010C94BF2355
:1032300010926D0410926C040E948E051092B304DB
:103240001092B2040C94BF239091C70380913A016D
:1032500097FD02C08823B9F0882331F08091B20431
:103260009091B3040E947C0B8091DB039091DC036E
:10327000909371048093700490936F0480936E0414
:1032800010923A0134C04091DB035091DC038091ED
:103290006E0490916F044A30510520F48F359140AF
:1032A0003CF40DC04F3561E0560748F00A973CF4F6
:1032B00050936F0440936E0485E080930D0120913C
:1032C0000D0180916E0490916F04222361F0840FB0
:1032D000951F9695879590936F0480936E04215067
:1032E00020930D0107C0909371048093700485E0D2
:1032F00080930D01809170049091710411E02091F0
:10330000B2043091B3042817390709F410E0909300
:10331000B3048093B2040C94BF2380918504882366
:1033200029F0813009F481C10C94BF2380911001F0
:10333000882359F11092100160E083E090E00E9430
:103340008C0560E084E090E00E948C0560E085E000
:1033500090E00E948C0510928404109283041092D5
:103360008204109281041092800410927F0489EDEF
:103370008093D8038093D90321E030E048ED53E0F7
:1033800062E082E790E00E94FC0A80913901882384
:1033900089F11092390181E090E09093B504809317
:1033A000B4043092C0032092BF0360EF72E082EB5E
:1033B00093E00E94AB2B10927B0410927C0410923D
:1033C0007D0410927E04109277041092780410927B
:1033D000790410927A041092760421E030E048EDEE
:1033E00053E062E082E790E00E94670A85EF92E096
:1033F0000E941D0E6091E2037091E30380E090E073
:103400000E94AE256B017C0120917B0430917C04ED
:1034100040917D0450917E040E94E92887FD08C0F8
:10342000C0927B04D0927C04E0927D04F0927E04F2
:103430006091E4037091E50380E090E00E94AE2586
:103440006B017C01209177043091780440917904DC
:1034500050917A040E94E92887FD08C0C092770441
:10346000D0927804E0927904F0927A048091D803A3
:103470008F73A0E28A9FC001112465E070E00E9472
:103480006A2970930F0160930E0120E030E0A901DA
:1034900060917B0470917C0480917D0490917E0406
:1034A0000E94A925882309F456C020E030E0A90134
:1034B00060917704709178048091790490917A04F6
:1034C0000E94A925882309F446C080918204823095
:1034D00008F441C0809181048230E8F18091800439
:1034E0008230C8F180917F048230A8F181E080931E
:1034F0003901809176048F5F8093760480918504F2
:103500008F5F8093850484EA93E00E941D0E82E021
:1035100093E00E941D0E80910E0190910F010E9478
:10352000980F8AE093E00E941D0E60917B047091D9
:103530007C0480917D0490917E040E94D10E609164
:103540007704709178048091790490917A040E94B4
:10355000D10E0C94BF238091DA03829586958370F7
:10356000282F30E030937504209374048130D1F01B
:1035700030F08230E9F1833041F10C94BF23809127
:1035800083049091840482309105CCF110928404DC
:1035900010928304809182048F5F8093820480E183
:1035A00093E03FC080918304909184048230910520
:1035B00034F11092840410928304809181048F5F0F
:1035C000809381048BE193E02CC0809183049091DF
:1035D0008404823091059CF010928404109283043C
:1035E000809180048F5F8093800486E293E019C00D
:1035F0008091830490918404823091053CF401967B
:1036000090938404809383040C94BF2310928404C9
:103610001092830480917F048F5F80937F0481E305
:1036200093E00E941D0E0C94BF23809139018823E2
:10363000B1F01092390181E090E09093B50480934D
:10364000B4043092C0032092BF036CE373E082EBBA
:1036500093E00E94AB2B81E493E00E941D0E20E0DA
:1036600030E046E954E460917B0470917C048091E1
:103670007D0490917E040E941A270E941928AB01B4
:10368000C0907704D0907804E0907904F0907A04A8
:103690009B012D503E4F273E334098F59B0177FF0D
:1036A00004C022273327261B370B2536310554F05B
:1036B0002091D8033091730457FF02C091E033C0CA
:1036C0009FE34AC0AB014D595F4F473C510508F09D
:1036D0006BC020E030E046E954E4C701B6010E9427
:1036E0001A270E94192867507F4F633F714008F0E6
:1036F0005BC081E0809372048CE493E00E941D0E15
:1037000053C09B0177FF04C022273327261B370BAA
:10371000243F314009F448C02091D803309173040C
:1037200057FF19C093E0920F9F73822F807C892BE3
:103730008093D803393030F110927304982F92950A
:103740009695969593709230E8F091509295990FD6
:10375000990F907C13C09DE3920F9F73822F807C02
:10376000892B8093D803393068F010927304982F16
:10377000907C903C39F0982F907C905C8F73892BD3
:103780008093D803809173048F5F8093730480913A
:10379000D8038093D90321E030E048ED53E062E0A4
:1037A00082E790E00E94FC0A80917204882309F469
:1037B0004BC081E0809339011092850481E090E054
:1037C0009093C0038093BF0325E030E03093C203A1
:1037D0002093C10386EB94E00E94DD0510927204F1
:1037E0008BE593E00E941D0E89E693E00E941D0E7A
:1037F0008091D80382958695869583700E94AA0F42
:103800008091D8038F730E94AA0F8091D90382956B
:103810008695869583700E94AA0F8091D9038F7335
:103820000E94AA0F61E083E090E00E948C05609105
:10383000D80384E090E00E948C056091D90385E074
:1038400090E00E948C059BC78AE480933A0421E0B3
:1038500030E04AE354E061E080ED90E00E94FC0A31
:1038600021E030E043EC53E061E080E190E00E9431
:10387000670A8091C30382FDF3CF81E08093390111
:103880001092850410927B0410927C0410927D04A7
:1038900010927E04109277041092780410927904AA
:1038A00010927A041092840410928304109282047D
:1038B000109281041092800410927F0460C780915E
:1038C000B104882321F0813009F48EC20FC78091A2
:1038D0003901882309F456C0109239011092B004BE
:1038E0001092AF0481E090E09093B5048093B4040B
:1038F0003092C0032092BF0363E773E082EB93E052
:103900000E94AB2B40EE5EE260E070E086EA94E05D
:103910000E94C2058091E2039091E3039093A50475
:103920008093A4042091E4033091E5033093A30431
:103930002093A2042091E6033091E7033093A10481
:103940002093A0042091E8033091E90330939F0471
:1039500020939E0490939D0480939C040E94980F52
:103960008091A2049091A3040E94980F8091A004DA
:103970009091A1040E94980F80919E0490919F04C1
:103980000E94980FE090E203F090E303B70180E01B
:1039900090E00E94AE254B015C01209135013091F1
:1039A000360140913701509138010E94A92518161F
:1039B00044F08092350190923601A0923701B09286
:1039C0003801209198043091990440919A045091C3
:1039D0009B04C501B4010E94E92887FD08C08092BC
:1039E000980490929904A0929A04B0929B046091DA
:1039F000E4037091E50380E090E00E94AE252B0186
:103A00003C012091310130913201409133015091BC
:103A100034010E94A925181644F0409231015092B9
:103A200032016092330170923401209194043091FC
:103A300095044091960450919704C301B2010E94ED
:103A4000E92887FD08C04092940450929504609242
:103A50009604709297046091E6037091E70380E00A
:103A600090E00E94AE252B013C0120912D01309168
:103A70002E0140912F01509130010E94A925181666
:103A800044F040922D0150922E0160922F017092CD
:103A90003001209190043091910440919204509112
:103AA0009304C301B2010E94E92887FD08C0409237
:103AB00090045092910460929204709293046091E9
:103AC000E8037091E90380E090E00E94AE252B01AD
:103AD0003C012091290130912A0140912B01509104
:103AE0002C010E94A925181644F0409229015092F9
:103AF0002A0160922B0170922C0120918C0430914C
:103B00008D0440918E0450918F04C301B2010E9434
:103B1000E92887FD08C040928C0450928D04609281
:103B20008E0470928F0420E03FEF4FE757E46091DE
:103B300035017091360180913701909138010E94D2
:103B4000A925882309F496C020E03FEF4FE757E40A
:103B50006091310170913201809133019091340173
:103B60000E94A925882309F485C020E03FEF4FE794
:103B700057E460912D0170912E0180912F01909159
:103B800030010E94A925882309F474C020E03FEF8A
:103B90004FE757E46091290170912A0180912B0130
:103BA00090912C010E94A925882309F463C020E08C
:103BB00030E0A901609198047091990480919A0471
:103BC00090919B040E94A925882309F453C020E00A
:103BD00030E0A9016091940470919504809196045D
:103BE000909197040E94A925882309F443C020E0FE
:103BF00030E0A90160919004709191048091920449
:103C0000909193040E94A9258823A1F120E030E03F
:103C1000A90160918C0470918D0480918E04909123
:103C20008F040E94A925882329F180918B0482307A
:103C300008F180918A048230E8F080918904823012
:103C4000C8F0809188048230A8F081E08093390127
:103C50001092B0041092AF0410928B0410928A0458
:103C600010928904109288048091B1048F5F809330
:103C7000B10434C58091DA0382958695837090E013
:103C8000909387048093860460919C0470919D04B6
:103C900080E090E00E94AE25A50194010E941A27C1
:103CA0004B015C0120E030E0A9010E94E9281816D0
:103CB0005CF420E030E040E051E4C501B4010E9432
:103CC000E92818165CF012C520E030E040E051EC25
:103CD000C501B4010E94A92587FF08C5F0929D0483
:103CE000E0929C048091AF049091B0040E94A00ED9
:103CF00080918604909187048130910529F11CF40C
:103D0000892B41F0EBC48230910509F451C003972F
:103D1000A9F1E4C48091AF049091B0049C012F5F9D
:103D20003F4F3093B0042093AF0402970CF4D6C4F5
:103D30001092B0041092AF0480918B048F5F809337
:103D40008B0480E193E04DC08091AF049091B0046A
:103D50009C012F5F3F4F3093B0042093AF04029734
:103D60000CF4BCC41092B0041092AF0480918A0489
:103D70008F5F80938A048BE193E033C08091AF041E
:103D80009091B0049C012F5F3F4F3093B00420937B
:103D9000AF0402970CF4A2C41092B0041092AF04C6
:103DA000809189048F5F8093890486E293E019C033
:103DB0008091AF049091B0049C012F5F3F4F3093EE
:103DC000B0042093AF0402970CF488C41092B0049E
:103DD0001092AF04809188048F5F8093880481E300
:103DE00093E00E941D0E7AC480913901882309F462
:103DF000C6C088E793E00E941D0E10923901109210
:103E0000B0041092AF0481E090E09093B5048093E9
:103E1000B4043092C0032092BF036FE773E082EBDB
:103E200093E00E94AB2B40EE5EE260E070E086EA39
:103E300094E00E94C2058091E2039091E303909385
:103E4000A5048093A4042091E4033091E50330930A
:103E5000A3042093A2042091E6033091E70330935A
:103E6000A1042093A0042091E8033091E90330934A
:103E70009F0420939E0490939D0480939C04209122
:103E800035013091360140913701509138016091F0
:103E900098047091990480919A0490919B040E94D7
:103EA000A72720E030E040E85FE30E941A276093F4
:103EB000350170933601809337019093380120913A
:103EC00031013091320140913301509134016091C0
:103ED00094047091950480919604909197040E94A7
:103EE000A72720E030E040E85FE30E941A276093B4
:103EF000310170933201809333019093340120910A
:103F00002D0130912E0140912F015091300160918F
:103F100090047091910480919204909193040E9476
:103F2000A72720E030E040E85FE30E941A27609373
:103F30002D0170932E0180932F01909330012091D9
:103F4000290130912A0140912B0150912C0160915F
:103F50008C0470918D0480918E0490918F040E9446
:103F6000A72720E030E040E85FE30E941A27609333
:103F7000290170932A0180932B0190932C01809149
:103F8000980490919904A0919A04B0919B048F8316
:103F90009887A987BA87A091E203B091E303BC8711
:103FA000AB87209135013091360140913701509116
:103FB00038012D873E874F87588B809194049091CC
:103FC0009504A0919604B0919704898B9A8BAB8B42
:103FD000BC8BA091E403B091E503BE8BAD8B209127
:103FE00031013091320140913301509134012F8BD6
:103FF000388F498F5A8F6091E6037091E70380E014
:1040000090E00E94AE259B01AC01609190047091FC
:10401000910480919204909193040E94A72720E03C
:1040200030E040E85FE30E941A2720912D01309193
:104030002E0140912F01509130010E94A7272B01A2
:104040003C016091E8037091E90380E090E00E94F8
:10405000AE259B01AC0160918C0470918D04809120
:104060008E0490918F040E94A72720E030E040E862
:104070005FE30E941A272091290130912A01409183
:104080002B0150912C010E94A7274B015C0120E0DD
:1040900030E040E05FE3C301B2010E941A276B01E8
:1040A0007C0120E030E0A9010E94E928181624F0E4
:1040B000C701B601905802C0C701B6012091250181
:1040C0003091260140912701509128010E94A92595
:1040D00087FF44C020E030E0A901C701B6010E947B
:1040E000E928181624F0F7FAF094F7F8F094C09243
:1040F0002501D0922601E0922701F09228014B85FC
:104100005C85BA0180E090E00E94AE259B01AC0185
:104110006F81788589859A850E94A72720E030E005
:1041200040E85FE30E941A272D853E854F85588918
:104130000E94A7276093210170932201809323019D
:104140009093240140921D0150921E0160921F0124
:1041500070922001C701B6010E94D10E20E030E02C
:1041600040E05FE3C501B4010E941A276B017C01A6
:1041700020E030E0A9010E94E928181624F0C701C8
:10418000B601905802C0C701B601209119013091C3
:104190001A0140911B0150911C010E94A92587FF23
:1041A00040C020E030E0A901C701B6010E94E92823
:1041B000181624F0F7FAF094F7F8F094C092190169
:1041C000D0921A01E0921B01F0921C01AD89BE89C8
:1041D000BD0180E090E00E94AE259B01AC016989A1
:1041E0007A898B899C890E94A72720E030E040E8EB
:1041F0005FE30E941A272F89388D498D5A8D0E94BE
:10420000A72760931501709316018093170190936F
:1042100018018092110190921201A0921301B092A4
:10422000140120E030E0A901609198047091990494
:1042300080919A0490919B040E94A925882309F4F7
:1042400094C120E030E0A90160919404709195043C
:1042500080919604909197040E94A925882309F4DF
:1042600084C120E030E0A901609190047091910434
:1042700080919204909193040E94A925882309F4C7
:1042800074C120E030E0A90160918C0470918D042C
:1042900080918E0490918F040E94A925882309F4AF
:1042A00064C180918B04823008F45FC180918A04DC
:1042B000823008F45AC180918904823008F455C1D3
:1042C00080918804823008F450C181E080933901E4
:1042D0001092B0041092AF041092B10440EE5EE26E
:1042E00060E070E086EA94E00E94C205209121011E
:1042F00030912201409123015091240160911D01D0
:1043000070911E0180911F01909120010E941A2737
:104310009B01AC010E941B270E9487276B017C0137
:10432000209115013091160140911701509118010B
:10433000609111017091120180911301909114010B
:104340000E941A279B01AC010E941B270E9487270D
:104350004B015C0120E030E0A901C701B6010E94D9
:10436000E928181624F0F7FAF094F7F8F09420E012
:1043700030E0A901C501B4010E94E928A50194011A
:1043800018160CF05058C701B6010E941B2720E0F8
:1043900030E040E05FE30E940F264B015C010E9489
:1043A000A22720E030E040E853E40E940F260E945C
:1043B0002028F62EC501B4010E94EE2820E030E04E
:1043C00040E853E40E940F260E942028E62E64E86D
:1043D00073E082EB93E00E94AB2BE0923A04F09200
:1043E0003B0421E030E04AE354E062E089E790E0FA
:1043F0000E94FC0A61E080E090E00E948C056F2D35
:1044000081E090E00E948C056E2D82E090E00E9499
:104410008C0510928B0410928A04109289041092D9
:10442000880480E090E0A0E8BFE3809325019093AA
:104430002601A0932701B09328018093190190933E
:104440001A01A0931B01B0931C0120E030E04AE761
:1044500054E420932101309322014093230150938F
:1044600024012093150130931601409317015093B6
:10447000180120931D0130931E0140931F0150939A
:1044800020012093110130931201409313015093A6
:104490001401109298041092990410929A041092A8
:1044A0009B0410929404109295041092960410921A
:1044B000970410929004109291041092920410921A
:1044C000930410928C0410928D0410928E0410921A
:1044D0008F0480E09FEFAFE7B7E4809335019093BE
:1044E0003601A0933701B093380180933101909346
:1044F0003201A0933301B093340180932D01909346
:104500002E01A0932F01B093300180932901909345
:104510002A01A0932B01B0932C01EE24E394F12CFB
:10452000F092B504E092B40464E873E082EB93E0A7
:104530000E94AB2BF092C003E092BF031092C20323
:104540001092C10362EB73E0CE0101960E94450315
:10455000CE0101960E94270CCE0101960E944003D5
:1045600086EB94E00E94DD05C1C08091DA0382955C
:104570008695837090E09093870480938604E09002
:10458000E203F090E30360919C0470919D0480E04D
:1045900090E00E94AE254B015C01B70180E090E005
:1045A0000E94AE259B01AC01C501B4010E941A27EF
:1045B0004B015C0120E030E0A9010E94E9281816B7
:1045C0005CF420E030E040E151E4C501B4010E9418
:1045D000E92818165CF08AC020E030E040E151EC98
:1045E000C501B4010E94A92587FF80C0F0929D04F7
:1045F000E0929C048091AF049091B0040E94A00EC0
:1046000080918604909187048130910519F11CF402
:10461000892B41F063C08230910509F449C00397AA
:1046200081F15CC08091AF049091B0049C012F5F38
:104630003F4F3093B0042093AF0402970CF44EC068
:104640001092B0041092AF0480918B048F5F80931E
:104650008B0444C08091AF049091B0049C012F5F03
:104660003F4F3093B0042093AF040297BCF11092F7
:10467000B0041092AF0480918A048F5F80938A0403
:104680002DC08091AF049091B0049C012F5F3F4FEB
:104690003093B0042093AF04029704F11092B00459
:1046A0001092AF04809189048F5F8093890416C0B3
:1046B0008091AF049091B0049C012F5F3F4F3093E5
:1046C000B0042093AF0402974CF01092B004109203
:1046D000AF04809188048F5F8093880440EE5EE28F
:1046E00060E070E086EA94E00E94C20586EA94E009
:1046F0000E949E05882309F442C01092C2031092C2
:10470000C10369E873E082EB93E00E94AB2B60E0A9
:1047100080E090E00E948C0560E081E090E00E94E3
:104720008C0560E082E090E00E948C0581E090E0E2
:104730009093C0038093BF039093B5048093B40417
:1047400062EB73E0CE0101960E944503CE01019613
:104750000E94270CCE0101960E944003E091C10304
:10476000F091C203FF27EE0FFF1FE95BFE4F61E0F0
:1047700080810E94E60F86EB94E00E94DD05109296
:10478000BF0438C086EB94E00E949E05882389F020
:10479000E091C103F091C203FF27EE0FFF1FE95B19
:1047A000FE4F60E080810E94E60F1092C0031092DD
:1047B000BF0381E080933B0180933A011092B504DE
:1047C0001092B40417C086EB93E00E949E058823E4
:1047D00089F01092C0031092BF03E091C103F091E1
:1047E000C203FF27EE0FFF1FE95BFE4F60E08081F1
:1047F0000E94E60F112321F18091BF039091C00325
:104800008D7F892BE9F401111BC08091B404909134
:10481000B504892B39F48091B2049091B3040E94BD
:104820007C0B0EC062EB73E0CE0101960E94450343
:10483000CE0101960E94270CCE0101960E944003F2
:104840000E94B6010C94CA1180915904882311F476
:104850000C946D1484E090E09093C2038093C103A4
:1048600081E080933901109285041092B104809305
:10487000100186EB94E00E94DD050C946D14CF933B
:10488000DF93109242051092410588EE93E0A0E07C
:10489000B0E08093430590934405A0934505B09301
:1048A00046052CE832E03093400520933F0525EC87
:1048B00030E030934C0520934B0524EC30E03093EE
:1048C0004E0520934D0520EC30E0309350052093A9
:1048D0004F0521EC30E0309352052093510522EC36
:1048E00030E0309354052093530526EC30E03093AC
:1048F00056052093550510925805109259051092AF
:104900005A0510925B0510921B0610921A068093AE
:104910001C0690931D06A0931E06B0931F068EE9F9
:1049200092E0909319068093180661E082E00E945D
:10493000161061E082E00E94E60F60E082E00E94D3
:10494000161061E082E00E94E60F89EF92E09093FA
:104950003E0180933D01809169008C7F816080934E
:104960006900E89A8091F7059091F805892B39F450
:1049700082E096E09093F8058093F70506C082E008
:1049800096E09093F6058093F50580E89AE1A6E01D
:10499000B0E08093120690931306A0931406B09390
:1049A0001506449A459A8091B9008E7F8093B9008C
:1049B0008091B9008D7F8093B9008CE08093B8001E
:1049C0008091BC0080648093BC008091BC008460B6
:1049D0008093BC001092100684E480930D0684E658
:1049E00090E0A0E0B0E08093020690930306A093CD
:1049F0000406B09305061092060610920706109260
:104A00000806109209061092110682E090E0909339
:104A10000C0680930B0610920F0610920E06109251
:104A200017061092160610920A0688EE93E0A0E090
:104A3000B0E08093FE059093FF05A0930006B0932D
:104A400001061092F9058093FA059093FB05A09357
:104A5000FC05B093FD051092800080E180938100F9
:104A600081E08093F1058FB78093F205F89480E49C
:104A70009FE19093F0058093EF05909387008093DA
:104A800086008091F2058FBF80918100887F80939E
:104A90008100909181008091F105892B80938100A4
:104AA000C0EBD2E061E089910E94161082E0CC3B1D
:104AB000D807C1F78091ED059091EE05892B31F46F
:104AC00089EF95E09093EE058093ED0586E0809365
:104AD000E5051092E60585E08093E7051092E8056C
:104AE00084E08093E9051092EA0583E08093EB056A
:104AF0001092EC051092E4058091FA059091FB0567
:104B0000A091FC05B091FD058093DC059093DD0537
:104B1000A093DE05B093DF050E9452106093E0057C
:104B20007093E1058093E2059093E30585E592E0BB
:104B30009093F4058093F30581E080936F0090914A
:104B400081008091F105892B80938100DF91CF91C5
:104B500008950E94EB2508F481E00895E89409C0C7
:104B600097FB3EF490958095709561957F4F8F4FA0
:104B70009F4F9923A9F0F92F96E9BB279395F695B6
:104B8000879577956795B795F111F8CFFAF4BB0F34
:104B900011F460FF1BC06F5F7F4F8F4F9F4F16C098
:104BA000882311F096E911C0772321F09EE8872F22
:104BB000762F05C0662371F096E8862F70E060E0DE
:104BC0002AF09A95660F771F881FDAF7880F969557
:104BD000879597F90895990F0008550FAA0BE0E8FB
:104BE000FEEF16161706E807F907C0F012161306AF
:104BF000E407F50798F0621B730B840B950B39F4EF
:104C00000A2661F0232B242B252B21F408950A2654
:104C100009F4A140A6958FEF811D811D08950E9482
:104C200022260C9493260E94852638F00E948C261A
:104C300020F0952311F00C947C260C9482261124EC
:104C40000C94C7260E94A42670F3959FC1F3950F7C
:104C500050E0551F629FF001729FBB27F00DB11D00
:104C6000639FAA27F00DB11DAA1F649F6627B00D90
:104C7000A11D661F829F2227B00DA11D621F739F79
:104C8000B00DA11D621F839FA00D611D221F749F87
:104C90003327A00D611D231F849F600D211D822FCE
:104CA000762F6A2F11249F5750409AF0F1F08823F5
:104CB0004AF0EE0FFF1FBB1F661F771F881F915022
:104CC0005040A9F79E3F510580F00C947C260C942F
:104CD000C7265F3FE4F3983ED4F3869577956795B2
:104CE000B795F795E7959F5FC1F7FE2B880F911D4C
:104CF0009695879597F9089597F99F6780E870E0F2
:104D000060E008959FEF80EC089500240A94161641
:104D1000170618060906089500240A9412161306A9
:104D2000140605060895092E0394000C11F4882337
:104D300052F0BB0F40F4BF2B11F460FF04C06F5F53
:104D40007F4F8F4F9F4F089557FD9058440F551F29
:104D500059F05F3F71F04795880F97FB991F61F0FD
:104D60009F3F79F087950895121613061406551F74
:104D7000F2CF4695F1DF08C0161617061806991FE0
:104D8000F1CF86957105610508940895E894BB27D5
:104D900066277727CB0197F90895F999FECF92BD41
:104DA00081BDF89A992780B50895262FF999FECFED
:104DB0001FBA92BD81BD20BD0FB6F894FA9AF99A38
:104DC0000FBE019608952F923F924F925F926F927D
:104DD0007F928F929F92AF92BF92CF92DF92EF928B
:104DE000FF920F931F93CF93DF93CDB7DEB7CA1B0C
:104DF000DB0B0FB6F894DEBF0FBECDBF09942A8837
:104E0000398848885F846E847D848C849B84AA84DE
:104E1000B984C884DF80EE80FD800C811B81AA816B
:104E2000B981CE0FD11D0FB6F894DEBF0FBECDBF36
:104E3000ED0108955058BB27AA270E9432270C94F1
:104E400093260E94852638F00E948C2620F039F4A3
:104E50009F3F19F426F40C9482260EF4E095E7FBAC
:104E60000C947C26E92F0E94A42658F3BA176207F7
:104E700073078407950720F079F4A6F50C94C626ED
:104E80000EF4E0950B2EBA2FA02D0B01B901900165
:104E90000C01CA01A0011124FF27591B99F0593FA9
:104EA00050F4503E68F11A16F040A22F232F342FF1
:104EB0004427585FF3CF469537952795A795F0403F
:104EC0005395C9F77EF41F16BA0B620B730B840B54
:104ED000BAF09150A1F0FF0FBB1F661F771F881F0C
:104EE000C2F70EC0BA0F621F731F841F48F4879564
:104EF00077956795B795F7959E3F08F0B0CF939556
:104F0000880F08F09927EE0F9795879508959F933E
:104F10009F77EEE389379E0728F4E8E6F0E00E94E9
:104F200096280CC00E944F289058A2EA2AED3FE034
:104F300049EC5FE30E9432270E9493260F9007FC02
:104F4000905808950E94AC28E3950C94D5280E94AF
:104F5000BB270C9493260E948C2658F00E9485262D
:104F600040F029F45F3F29F00C947C2651110C94F9
:104F7000C7260C9482260E94A42668F39923B1F3D5
:104F8000552391F3951B550BBB27AA27621773076F
:104F9000840738F09F5F5F4F220F331F441FAA1F03
:104FA000A9F335D00E2E3AF0E0E832D091505040BF
:104FB000E695001CCAF72BD0FE2F29D0660F771F6D
:104FC000881FBB1F261737074807AB07B0E809F053
:104FD000BB0B802DBF01FF2793585F4F3AF09E3FD8
:104FE000510578F00C947C260C94C7265F3FE4F3BF
:104FF000983ED4F3869577956795B795F7959F5F1B
:10500000C9F7880F911D9695879597F90895E1E066
:10501000660F771F881FBB1F621773078407BA07C5
:1050200020F0621B730B840BBA0BEE1F88F7E09520
:1050300008950E9420286894B1110C94C726089501
:105040000E94AC2688F09F5798F0B92F9927B75146
:10505000B0F0E1F0660F771F881F991F1AF0BA951C
:10506000C9F714C0B13091F00E94C626B1E008958E
:105070000C94C626672F782F8827B85F39F0B93F80
:10508000CCF3869577956795B395D9F73EF49095CF
:105090008095709561957F4F8F4F9F4F0895DF9357
:1050A000CF931F930F938B01EC01ECE7F0E00E948C
:1050B0006F280E9493269801AE018B01EC0160E0FD
:1050C00070E080E89FE30E941A270E94FC28980164
:1050D000AE010F911F91CF91DF910C942226DF93A7
:1050E000CF931F930F93FF92EF92DF927B018C017E
:1050F000689406C0DA2EEF010E942226FE01E89491
:10510000A5912591359145915591A6F3EF010E9406
:105110003227FE019701A801DA9469F7DF90EF903A
:10512000FF900F911F91CF91DF9108959F938F93DF
:105130007F936F93FF93EF939B01AC010E940F2627
:10514000EF91FF910E946F282F913F914F915F91B6
:105150000C940F260C9482260E94AC26D8F3E89477
:10516000E0E0BB279F57F0F02AED3FE049EC06C096
:10517000EE0FBB0F661F771F881F28F0B23A620739
:105180007307840728F0B25A620B730B840BE39504
:105190009A9572F7803830F49A95BB0F661F771F87
:1051A000881FD2F790480C944329EF93E0FF07C083
:1051B000A2EA2AED3FE049EC5FEB0E9432270E9411
:1051C00093260F90039401FC9058E4EAF0E00C94CD
:1051D00096280E94EB2508F48FEF08959F930E9474
:1051E000AC280F9007FCEE5F0C94D52819F416F448
:1051F0000C9482260C9441290E94AC26B8F3992382
:10520000C9F3B6F39F57550B87FF0E944F2900241F
:10521000A0E640EA900180585695979528F4805C66
:10522000660F771F881F20F026173707480730F4CE
:10523000621B730B840B202931294A2BA6951794E6
:105240000794202531254A2758F7660F771F881FB6
:1052500020F026173707480730F4620B730B840BD6
:10526000200D311D411DA09581F7B901842F915862
:10527000880F9695879508950E94EB25880B990BCA
:1052800008959F3F31F0915020F487957795679569
:10529000B795880F911D9695879597F90895915028
:1052A0005040660F771F881FD2F70895AA1BBB1BBB
:1052B00051E107C0AA1FBB1FA617B70710F0A61B16
:1052C000B70B881F991F5A95A9F780959095BC0137
:1052D000CD01089597FB072E16F4009407D077FDB3
:1052E00009D00E94562907FC05D03EF4909581957F
:1052F0009F4F0895709561957F4F0895A1E21A2EF2
:10530000AA1BBB1BFD010DC0AA1FBB1FEE1FFF1F69
:10531000A217B307E407F50720F0A21BB30BE40BB9
:10532000F50B661F771F881F991F1A9469F7609500
:105330007095809590959B01AC01BD01CF010895BA
:10534000EE0FFF1F0590F491E02D0994CF93DF93AA
:105350008230910510F482E090E0E0912F06F09108
:10536000300620E030E0C0E0D0E0309711F140811D
:10537000518148175907C0F04817590761F48281D5
:105380009381209719F09B838A832BC090933006DA
:1053900080932F0626C02115310519F042175307B7
:1053A00018F49A01BE01DF01EF010280F381E02DC4
:1053B000DCCF2115310509F1281B390B24303105CB
:1053C00090F412968D919C9113976115710521F0BF
:1053D000FB019383828304C09093300680932F0651
:1053E000FD01329644C0FD01E20FF31F81939193BA
:1053F000225031092D933C933AC020912D063091D3
:105400002E06232B41F42091430130914401309327
:105410002E0620932D062091410130914201211545
:10542000310541F42DB73EB74091450150914601F9
:10543000241B350BE0912D06F0912E06E217F307A1
:10544000A0F42E1B3F0B2817390778F0AC014E5FF4
:105450005F4F2417350748F04E0F5F1F50932E06FD
:1054600040932D068193919302C0E0E0F0E0CF01DC
:10547000DF91CF9108950F931F93CF93DF93009700
:1054800009F48CC0FC0132971382128200912F061E
:10549000109130060115110581F420813181820FB0
:1054A000931F20912D0630912E062817390779F584
:1054B000F0932E06E0932D0671C0D80140E050E035
:1054C000AE17BF0750F412962D913C911397AD0182
:1054D0002115310509F1D901F3CF9D01DA0133839B
:1054E000228360817181860F971F8217930769F469
:1054F000EC0128813981260F371F2E5F3F4F318302
:1055000020838A819B8193838283452B29F4F093A6
:105510003006E0932F0642C01396FC93EE93129749
:10552000ED01499159919E01240F351FE217F307B0
:1055300071F480819181840F951F029611969C933E
:105540008E938281938113969C938E931297E0E0C1
:10555000F0E0D80112968D919C911397009719F065
:10556000F8018C01F6CF8D919C9198012E5F3F4FF1
:10557000820F931F20912D0630912E062817390790
:1055800069F4309729F41092300610922F0602C069
:105590001382128210932E0600932D06DF91CF9175
:1055A0001F910F910895A0E0B0E0E9EDFAE20C94AC
:1055B000E726EC01009721F4CB010E94A629B8C090
:1055C000FC01E60FF71F9C0122503109E217F30797
:1055D00008F4ACC0D9010D911C911197061717075B
:1055E000B0F00530110508F49FC0C8010497861774
:1055F000970708F499C002501109061B170B019375
:1056000011936D937C93CF010E943B2A8DC05B0167
:10561000A01AB10A4C01800E911EA0912F06B091E4
:10562000300640E050E0E12CF12C109709F44AC01C
:10563000A815B905D1F56D907C901197630182E0B2
:10564000C80ED11CCA14DB0480F1A3014A195B09FE
:105650006A0182E0C80ED11C1296BC901297139674
:10566000AC91B5E0CB16D10440F0B282A383518354
:105670004083D9016D937C930AC00E5F1F4FC30115
:10568000800F911FF90191838083EB2DFA2FE11494
:10569000F10431F0D7011396FC93EE93129744C0B6
:1056A000F0933006E0932F063FC08D919C911197A7
:1056B0004817590708F4AC017D0112960D90BC9172
:1056C000A02DB3CF80912D0690912E0688159905B7
:1056D000E1F446175707C8F48091410190914201C7
:1056E000009741F48DB79EB7409145015091460116
:1056F000841B950BE817F907C8F4F0932E06E09386
:105700002D06F901718360830FC0CB010E94A62989
:105710007C01009759F0A801BE010E94A22BCE0186
:105720000E943B2AC70104C0CE0102C080E090E085
:10573000CDB7DEB7EEE00C94032781E090E0F8945B
:105740000C94532EFB01DC0102C001900D924150DC
:105750005040D8F70895FB01DC0101900D92002024
:10576000E1F70895AEE0B0E0E8EBFBE20C94F1263F
:105770000D891E8986E08C831A8309838FEF9FE74A
:105780009E838D83AE01475E5F4F6F89788DCE011A
:1057900001960E94D52B2F813885F801E20FF31F67
:1057A00010822E96E4E00C940D27ACE0B0E0EBED17
:1057B000FBE20C94E3267C016B018A01FC01178259
:1057C0001682838181FFBDC1CE0101964C01F70194
:1057D0009381F60193FD859193FF81916F01882359
:1057E00009F4ABC1853239F493FD859193FF819122
:1057F0006F01853229F4B70190E00E94BD2DE7CFFB
:10580000512C312C20E02032A0F48B3269F030F49E
:10581000803259F0833269F420612CC08D3239F026
:10582000803339F4216026C02260246023C02860C0
:1058300021C027FD27C030ED380F3A3078F426FF1D
:1058400006C0FAE05F9E300D1124532E13C08AE08B
:10585000389E300D1124332E20620CC08E3221F47C
:1058600026FD6BC1206406C08C3611F4206802C08E
:10587000883641F4F60193FD859193FF81916F0184
:105880008111C1CF982F9F7D9554933028F40C5FE0
:105890001F4FFFE3F9830DC0833631F0833771F07A
:1058A000833509F05BC022C0F801808189830E5FD7
:1058B0001F4F44244394512C540115C03801F2E089
:1058C0006F0E711CF801A080B18026FF03C0652D0A
:1058D00070E002C06FEF7FEFC5012C870E94B22DF0
:1058E0002C0183012C852F77222E17C03801F2E07E
:1058F0006F0E711CF801A080B18026FF03C0652DDA
:1059000070E002C06FEF7FEFC5012C870E94A72DCA
:105910002C012C852068222E830123FC1BC0832DA3
:1059200090E048165906B0F4B70180E290E00E947A
:10593000BD2D3A94F4CFF50127FC859127FE819186
:105940005F01B70190E00E94BD2D31103A94F1E063
:105950004F1A51084114510471F7E5C0843611F013
:10596000893639F5F80127FF07C06081718182818E
:1059700093810C5F1F4F08C060817181072E000C5E
:10598000880B990B0E5F1F4F2F76722E97FF09C061
:1059900090958095709561957F4F8F4F9F4F2068B0
:1059A000722E2AE030E0A4010E94F52DA82EA8183E
:1059B00044C0853729F42F7EB22E2AE030E025C07E
:1059C000F22FF97FBF2E8F36C1F018F4883579F0A9
:1059D000B4C0803719F0883721F0AFC02F2F206175
:1059E000B22EB4FE0DC08B2D8460B82E09C024FFEA
:1059F0000AC09F2F9660B92E06C028E030E005C08F
:105A000020E130E002C020E132E0F801B7FE07C03B
:105A100060817181828193810C5F1F4F06C060811C
:105A2000718180E090E00E5F1F4FA4010E94F52D70
:105A3000A82EA818FB2DFF777F2E76FE0BC0372DE2
:105A40003E7FA51450F474FE0AC072FC08C0372DC6
:105A50003E7E05C0BA2C372D03C0BA2C01C0B52C30
:105A600034FF0DC0FE01EA0DF11D8081803311F479
:105A7000397E09C032FF06C0B394B39404C0832FAB
:105A8000867809F0B39433FD13C030FF06C05A2C5A
:105A9000B31418F4530C5B18B32CB31468F4B701A7
:105AA00080E290E03C870E94BD2DB3943C85F5CF09
:105AB000B31410F43B1801C0312C34FF12C0B701ED
:105AC00080E390E03C870E94BD2D3C8532FF17C0EB
:105AD00031FD03C088E790E002C088E590E0B7019F
